{
  "contractName": "CampaignManager",
  "abi": [
    {
      "constant": true,
      "inputs": [
        {
          "name": "",
          "type": "uint256"
        }
      ],
      "name": "campaigns",
      "outputs": [
        {
          "name": "manager",
          "type": "address"
        },
        {
          "name": "startingTime",
          "type": "uint256"
        },
        {
          "name": "endingTime",
          "type": "uint256"
        },
        {
          "name": "balance",
          "type": "uint256"
        },
        {
          "name": "goal",
          "type": "uint256"
        },
        {
          "name": "ipfsHash",
          "type": "string"
        },
        {
          "name": "presalePrice",
          "type": "uint256"
        },
        {
          "name": "postsalePrice",
          "type": "uint256"
        }
      ],
      "payable": false,
      "stateMutability": "view",
      "type": "function"
    },
    {
      "constant": true,
      "inputs": [],
      "name": "emergencyStop_stopFunding",
      "outputs": [
        {
          "name": "",
          "type": "bool"
        }
      ],
      "payable": false,
      "stateMutability": "view",
      "type": "function"
    },
    {
      "constant": false,
      "inputs": [
        {
          "name": "impl",
          "type": "address"
        }
      ],
      "name": "upgradeTo",
      "outputs": [],
      "payable": false,
      "stateMutability": "nonpayable",
      "type": "function"
    },
    {
      "constant": true,
      "inputs": [],
      "name": "implementation",
      "outputs": [
        {
          "name": "",
          "type": "address"
        }
      ],
      "payable": false,
      "stateMutability": "view",
      "type": "function"
    },
    {
      "constant": true,
      "inputs": [],
      "name": "emergencyStop_stopCreation",
      "outputs": [
        {
          "name": "",
          "type": "bool"
        }
      ],
      "payable": false,
      "stateMutability": "view",
      "type": "function"
    },
    {
      "constant": false,
      "inputs": [],
      "name": "renounceOwnership",
      "outputs": [],
      "payable": false,
      "stateMutability": "nonpayable",
      "type": "function"
    },
    {
      "constant": true,
      "inputs": [],
      "name": "campaignCount",
      "outputs": [
        {
          "name": "",
          "type": "uint256"
        }
      ],
      "payable": false,
      "stateMutability": "view",
      "type": "function"
    },
    {
      "constant": true,
      "inputs": [],
      "name": "owner",
      "outputs": [
        {
          "name": "",
          "type": "address"
        }
      ],
      "payable": false,
      "stateMutability": "view",
      "type": "function"
    },
    {
      "constant": false,
      "inputs": [
        {
          "name": "_newOwner",
          "type": "address"
        }
      ],
      "name": "transferOwnership",
      "outputs": [],
      "payable": false,
      "stateMutability": "nonpayable",
      "type": "function"
    },
    {
      "inputs": [],
      "payable": false,
      "stateMutability": "nonpayable",
      "type": "constructor"
    },
    {
      "payable": true,
      "stateMutability": "payable",
      "type": "fallback"
    },
    {
      "anonymous": false,
      "inputs": [
        {
          "indexed": true,
          "name": "implementation",
          "type": "address"
        }
      ],
      "name": "Upgraded",
      "type": "event"
    },
    {
      "anonymous": false,
      "inputs": [
        {
          "indexed": true,
          "name": "previousOwner",
          "type": "address"
        }
      ],
      "name": "OwnershipRenounced",
      "type": "event"
    },
    {
      "anonymous": false,
      "inputs": [
        {
          "indexed": true,
          "name": "previousOwner",
          "type": "address"
        },
        {
          "indexed": true,
          "name": "newOwner",
          "type": "address"
        }
      ],
      "name": "OwnershipTransferred",
      "type": "event"
    },
    {
      "constant": false,
      "inputs": [],
      "name": "enableEmergencyStop_Creation",
      "outputs": [],
      "payable": false,
      "stateMutability": "nonpayable",
      "type": "function"
    },
    {
      "constant": false,
      "inputs": [],
      "name": "enableEmergencyStop_Funding",
      "outputs": [],
      "payable": false,
      "stateMutability": "nonpayable",
      "type": "function"
    },
    {
      "constant": false,
      "inputs": [
        {
          "name": "_startingTime",
          "type": "uint256"
        },
        {
          "name": "_endingTime",
          "type": "uint256"
        },
        {
          "name": "_goal",
          "type": "uint256"
        },
        {
          "name": "_ipfsHash",
          "type": "string"
        },
        {
          "name": "_presalePrice",
          "type": "uint256"
        },
        {
          "name": "_postsalePrice",
          "type": "uint256"
        }
      ],
      "name": "createCampaign",
      "outputs": [
        {
          "name": "",
          "type": "uint256"
        }
      ],
      "payable": false,
      "stateMutability": "nonpayable",
      "type": "function"
    },
    {
      "constant": false,
      "inputs": [
        {
          "name": "_campaignID",
          "type": "uint256"
        }
      ],
      "name": "fundCampaign",
      "outputs": [],
      "payable": true,
      "stateMutability": "payable",
      "type": "function"
    },
    {
      "constant": false,
      "inputs": [
        {
          "name": "_campaignID",
          "type": "uint256"
        },
        {
          "name": "_value",
          "type": "uint256"
        }
      ],
      "name": "reduceDontation",
      "outputs": [],
      "payable": false,
      "stateMutability": "nonpayable",
      "type": "function"
    },
    {
      "constant": false,
      "inputs": [
        {
          "name": "_campaignID",
          "type": "uint256"
        }
      ],
      "name": "withdrawCampaignFunds",
      "outputs": [],
      "payable": false,
      "stateMutability": "nonpayable",
      "type": "function"
    },
    {
      "constant": false,
      "inputs": [
        {
          "name": "_campaignID",
          "type": "uint256"
        },
        {
          "name": "_newHash",
          "type": "string"
        }
      ],
      "name": "updateIpfsHash",
      "outputs": [],
      "payable": false,
      "stateMutability": "nonpayable",
      "type": "function"
    },
    {
      "constant": true,
      "inputs": [
        {
          "name": "_campaignID",
          "type": "uint256"
        }
      ],
      "name": "fetchCampaign",
      "outputs": [
        {
          "name": "manager",
          "type": "address"
        },
        {
          "name": "startingTime",
          "type": "uint256"
        },
        {
          "name": "endingTime",
          "type": "uint256"
        },
        {
          "name": "balance",
          "type": "uint256"
        },
        {
          "name": "goal",
          "type": "uint256"
        },
        {
          "name": "donersAddresses",
          "type": "address[]"
        },
        {
          "name": "ipfsHash",
          "type": "string"
        },
        {
          "name": "presalePrice",
          "type": "uint256"
        },
        {
          "name": "postsalePrice",
          "type": "uint256"
        }
      ],
      "payable": false,
      "stateMutability": "view",
      "type": "function"
    },
    {
      "constant": true,
      "inputs": [
        {
          "name": "_campaignID",
          "type": "uint256"
        },
        {
          "name": "_donor",
          "type": "address"
        }
      ],
      "name": "fetchCampaignLicenses",
      "outputs": [
        {
          "name": "licenses",
          "type": "uint256"
        }
      ],
      "payable": false,
      "stateMutability": "view",
      "type": "function"
    }
  ],
  "bytecode": "0x60806040526000600360006101000a81548160ff0219169083151502179055506000600360016101000a81548160ff02191690831515021790555034801561004657600080fd5b50336000806101000a81548173ffffffffffffffffffffffffffffffffffffffff021916908373ffffffffffffffffffffffffffffffffffffffff160217905550336000806101000a81548173ffffffffffffffffffffffffffffffffffffffff021916908373ffffffffffffffffffffffffffffffffffffffff16021790555060006002819055506126d3806100de6000396000f3006080604052600436106100fc576000357c0100000000000000000000000000000000000000000000000000000000900463ffffffff16806314169e2a14610257578063141961bc14610284578063195239f5146103875780631d6c73641461039e5780631e5b8cb1146103cd5780633659cfe61461047c57806338144375146104bf5780635c60da1b146104f65780636661d0551461054d578063715018a61461057c5780637274e30d146105935780638da5cb5b146105be57806392bd38bc146106155780639611c05114610635578063b7a8d3aa146106a8578063d7f05db314610709578063f2fde38b14610854578063fc517a1314610897575b600060606101086108ae565b9150600073ffffffffffffffffffffffffffffffffffffffff168273ffffffffffffffffffffffffffffffffffffffff16141515156101fb576040517f08c379a000000000000000000000000000000000000000000000000000000000815260040180806020018281038252605a8152602001807f54686520696d706c656d656e746174696f6e20616464726573732073686f756c81526020017f64206e6f7420626520746865206275726e206164647265737320286e6f6e2d6981526020017f6d706c656d656e7465642070726f787920636f6e74726163742900000000000081525060600191505060405180910390fd5b6000368080601f0160208091040260200160405190810160405280939291908181526020018383808284378201915050505050509050600080825160208401855af43d604051816000823e8260008114610253578282f35b8282fd5b34801561026357600080fd5b50610282600480360381019080803590602001909291905050506108d8565b005b34801561029057600080fd5b506102af60048036038101908080359060200190929190505050610aff565b604051808973ffffffffffffffffffffffffffffffffffffffff1673ffffffffffffffffffffffffffffffffffffffff16815260200188815260200187815260200186815260200185815260200180602001848152602001838152602001828103825285818151815260200191508051906020019080838360005b8381101561034557808201518184015260208101905061032a565b50505050905090810190601f1680156103725780820380516001836020036101000a031916815260200191505b50995050505050505050505060405180910390f35b34801561039357600080fd5b5061039c610bff565b005b3480156103aa57600080fd5b506103b3610c77565b604051808215151515815260200191505060405180910390f35b3480156103d957600080fd5b50610466600480360381019080803590602001909291908035906020019092919080359060200190929190803590602001908201803590602001908080601f01602080910402602001604051908101604052809392919081815260200183838082843782019150505050505091929192908035906020019092919080359060200190929190505050610c8a565b6040518082815260200191505060405180910390f35b34801561048857600080fd5b506104bd600480360381019080803573ffffffffffffffffffffffffffffffffffffffff169060200190929190505050610fcd565b005b3480156104cb57600080fd5b506104f4600480360381019080803590602001909291908035906020019092919050505061119b565b005b34801561050257600080fd5b5061050b6108ae565b604051808273ffffffffffffffffffffffffffffffffffffffff1673ffffffffffffffffffffffffffffffffffffffff16815260200191505060405180910390f35b34801561055957600080fd5b50610562611866565b604051808215151515815260200191505060405180910390f35b34801561058857600080fd5b50610591611879565b005b34801561059f57600080fd5b506105a861197b565b6040518082815260200191505060405180910390f35b3480156105ca57600080fd5b506105d3611981565b604051808273ffffffffffffffffffffffffffffffffffffffff1673ffffffffffffffffffffffffffffffffffffffff16815260200191505060405180910390f35b610633600480360381019080803590602001909291905050506119a6565b005b34801561064157600080fd5b506106a660048036038101908080359060200190929190803590602001908201803590602001908080601f0160208091040260200160405190810160405280939291908181526020018383808284378201915050505050509192919290505050611d40565b005b3480156106b457600080fd5b506106f360048036038101908080359060200190929190803573ffffffffffffffffffffffffffffffffffffffff169060200190929190505050611f25565b6040518082815260200191505060405180910390f35b34801561071557600080fd5b5061073460048036038101908080359060200190929190505050611f86565b604051808a73ffffffffffffffffffffffffffffffffffffffff1673ffffffffffffffffffffffffffffffffffffffff1681526020018981526020018881526020018781526020018681526020018060200180602001858152602001848152602001838103835287818151815260200191508051906020019060200280838360005b838110156107d15780820151818401526020810190506107b6565b50505050905001838103825286818151815260200191508051906020019080838360005b838110156108105780820151818401526020810190506107f5565b50505050905090810190601f16801561083d5780820380516001836020036101000a031916815260200191505b509b50505050505050505050505060405180910390f35b34801561086057600080fd5b50610895600480360381019080803573ffffffffffffffffffffffffffffffffffffffff1690602001909291905050506121d9565b005b3480156108a357600080fd5b506108ac612240565b005b6000600160009054906101000a900473ffffffffffffffffffffffffffffffffffffffff16905090565b806004600082815260200190815260200160002060000160009054906101000a900473ffffffffffffffffffffffffffffffffffffffff1673ffffffffffffffffffffffffffffffffffffffff163373ffffffffffffffffffffffffffffffffffffffff161415156109d8576040517f08c379a00000000000000000000000000000000000000000000000000000000081526004018080602001828103825260298152602001807f5468652063616c6c65722073686f756c6420626520657175616c20746f20746881526020017f65206d616e61676572000000000000000000000000000000000000000000000081525060400191505060405180910390fd5b8160046000828152602001908152602001600020600401546004600083815260200190815260200160002060030154101580610a295750600460008281526020019081526020016000206002015442115b1515610a9d576040517f08c379a00000000000000000000000000000000000000000000000000000000081526004018080602001828103825260188152602001807f50726573616c65207374696c6c20696e2073657373696f6e000000000000000081525060200191505060405180910390fd5b3373ffffffffffffffffffffffffffffffffffffffff166108fc60046000868152602001908152602001600020600301549081150290604051600060405180830381858888f19350505050158015610af9573d6000803e3d6000fd5b50505050565b60046020528060005260406000206000915090508060000160009054906101000a900473ffffffffffffffffffffffffffffffffffffffff1690806001015490806002015490806003015490806004015490806007018054600181600116156101000203166002900480601f016020809104026020016040519081016040528092919081815260200182805460018160011615610100020316600290048015610be95780601f10610bbe57610100808354040283529160200191610be9565b820191906000526020600020905b815481529060010190602001808311610bcc57829003601f168201915b5050505050908060080154908060090154905088565b6000809054906101000a900473ffffffffffffffffffffffffffffffffffffffff1673ffffffffffffffffffffffffffffffffffffffff163373ffffffffffffffffffffffffffffffffffffffff16141515610c5a57600080fd5b6001600360006101000a81548160ff021916908315150217905550565b600360019054906101000a900460ff1681565b600060608787428210151515610d2e576040517f08c379a00000000000000000000000000000000000000000000000000000000081526004018080602001828103825260388152602001807f46697273746c792c2053746172742074696d65206d757374206265206c61726781526020017f6572207468616e207468652063757272656e742074696d65000000000000000081525060400191505060405180910390fd5b8181111515610dcb576040517f08c379a000000000000000000000000000000000000000000000000000000000815260040180806020018281038252603c8152602001807f5365636f6e646c792c2074686520656e642074696d652073686f756c6420626581526020017f206d6f7265207468616e20746865207374617274696e672074696d650000000081525060400191505060405180910390fd5b60001515600360009054906101000a900460ff161515141515610e7c576040517f08c379a00000000000000000000000000000000000000000000000000000000081526004018080602001828103825260258152602001807f54686520656d657267656e63792073746f70206372656174696f6e206973206181526020017f637469766500000000000000000000000000000000000000000000000000000081525060400191505060405180910390fd5b610120604051908101604052803373ffffffffffffffffffffffffffffffffffffffff1681526020018b81526020018a8152602001600081526020018981526020018481526020018881526020018781526020018681525060046000600254815260200190815260200160002060008201518160000160006101000a81548173ffffffffffffffffffffffffffffffffffffffff021916908373ffffffffffffffffffffffffffffffffffffffff1602179055506020820151816001015560408201518160020155606082015181600301556080820151816004015560a0820151816006019080519060200190610f749291906124b5565b5060c0820151816007019080519060200190610f9192919061253f565b5060e082015181600801556101008201518160090155905050600160026000828254019250508190555060025493505050509695505050505050565b6000809054906101000a900473ffffffffffffffffffffffffffffffffffffffff1673ffffffffffffffffffffffffffffffffffffffff163373ffffffffffffffffffffffffffffffffffffffff1614151561102857600080fd5b8073ffffffffffffffffffffffffffffffffffffffff16600160009054906101000a900473ffffffffffffffffffffffffffffffffffffffff1673ffffffffffffffffffffffffffffffffffffffff1614151515611114576040517f08c379a000000000000000000000000000000000000000000000000000000000815260040180806020018281038252603d8152602001807f7570677261646520616464726573732073686f756c64206e6f7420626520746881526020017f652073616d65206173207468652063757272656e74206164647265737300000081525060400191505060405180910390fd5b80600160006101000a81548173ffffffffffffffffffffffffffffffffffffffff021916908373ffffffffffffffffffffffffffffffffffffffff1602179055508073ffffffffffffffffffffffffffffffffffffffff167fbc7cd75a20ee27fd9adebab32041f755214dbc6bffa90cc0225b39da2e5c2d3b60405160405180910390a250565b600082600460008281526020019081526020016000206001015442111515611277576040517f08c379a00000000000000000000000000000000000000000000000000000000081526004018080602001828103825260438152602001807f43757272656e742074696d65206d757374206265206c6172676572207468616e81526020017f207374617274696e672074696d6520666f722070726f6a65637420746f20737481526020017f617274000000000000000000000000000000000000000000000000000000000081525060600191505060405180910390fd5b83600460008281526020019081526020016000206002015442101515611351576040517f08c379a000000000000000000000000000000000000000000000000000000000815260040180806020018281038252604e8152602001807f43757272656e742074696d65206d757374206265206c657373207468616e207481526020017f686520656e642074696d6520666f72207468652063616d706169676e20746f2081526020017f68617665206e6f7420656e64656400000000000000000000000000000000000081525060600191505060405180910390fd5b848460046000838152602001908152602001600020600401546004600084815260200190815260200160002060030154111561147957600460008381526020019081526020016000206004015481600460008581526020019081526020016000206003015403111515611478576040517f08c379a00000000000000000000000000000000000000000000000000000000081526004018080602001828103825260508152602001807f5468652076616c7565206f66207468652063616d706169676e2062616c616e6381526020017f652061667465722074686520726564756374696f6e2077696c6c206265206d6f81526020017f7265207468616e2074686520676f616c0000000000000000000000000000000081525060600191505060405180910390fd5b5b868660008060009150600090505b6004600085815260200190815260200160002060050160003373ffffffffffffffffffffffffffffffffffffffff1673ffffffffffffffffffffffffffffffffffffffff16815260200190815260200160002080549050811015611561576004600085815260200190815260200160002060050160003373ffffffffffffffffffffffffffffffffffffffff1673ffffffffffffffffffffffffffffffffffffffff1681526020019081526020016000208181548110151561154557fe5b9060005260206000200154820191508080600101915050611487565b60008383031215151561164e576040517f08c379a000000000000000000000000000000000000000000000000000000000815260040180806020018281038252606d8152602001807f5468652073756d206f6620616c6c20646f6e6174696f6e7320666f722061207081526020017f6172746963756c617220757365722073686f756c64206265206d6f726520746881526020017f616e203020746f20656e61626c6520616e79206b696e64206f6620646f6e617481526020017f696f6e20726564756374696f6e0000000000000000000000000000000000000081525060800191505060405180910390fd5b89600460008d815260200190815260200160002060030160008282540392505081905550600460008c815260200190815260200160002060050160003373ffffffffffffffffffffffffffffffffffffffff1673ffffffffffffffffffffffffffffffffffffffff1681526020019081526020016000208a60000390806001815401808255809150509060018203906000526020600020016000909192909190915055506117128a600460008e8152602001908152602001600020600801546122b8565b985089600460008d8152602001908152602001600020600801548a021115156118125761173f8b33611f25565b8910156117af5760018901600460008d8152602001908152602001600020600a0160003373ffffffffffffffffffffffffffffffffffffffff1673ffffffffffffffffffffffffffffffffffffffff16815260200190815260200160002060008282540392505081905550611811565b88600460008d8152602001908152602001600020600a0160003373ffffffffffffffffffffffffffffffffffffffff1673ffffffffffffffffffffffffffffffffffffffff168152602001908152602001600020600082825403925050819055505b5b3373ffffffffffffffffffffffffffffffffffffffff166108fc8b9081150290604051600060405180830381858888f19350505050158015611858573d6000803e3d6000fd5b505050505050505050505050565b600360009054906101000a900460ff1681565b6000809054906101000a900473ffffffffffffffffffffffffffffffffffffffff1673ffffffffffffffffffffffffffffffffffffffff163373ffffffffffffffffffffffffffffffffffffffff161415156118d457600080fd5b6000809054906101000a900473ffffffffffffffffffffffffffffffffffffffff1673ffffffffffffffffffffffffffffffffffffffff167ff8df31144d9c2f0f6b59d69b8b98abd5459d07f2742c4df920b25aae33c6482060405160405180910390a260008060006101000a81548173ffffffffffffffffffffffffffffffffffffffff021916908373ffffffffffffffffffffffffffffffffffffffff160217905550565b60025481565b6000809054906101000a900473ffffffffffffffffffffffffffffffffffffffff1681565b600081600460008281526020019081526020016000206001015442111515611a82576040517f08c379a00000000000000000000000000000000000000000000000000000000081526004018080602001828103825260438152602001807f43757272656e742074696d65206d757374206265206c6172676572207468616e81526020017f207374617274696e672074696d6520666f722070726f6a65637420746f20737481526020017f617274000000000000000000000000000000000000000000000000000000000081525060600191505060405180910390fd5b60001515600360019054906101000a900460ff161515141515611b33576040517f08c379a00000000000000000000000000000000000000000000000000000000081526004018080602001828103825260248152602001807f54686520656d657267656e63792073746f702066756e64696e6720697320616381526020017f746976650000000000000000000000000000000000000000000000000000000081525060400191505060405180910390fd5b611b3c836122ce565b9150813410151515611bb6576040517f08c379a00000000000000000000000000000000000000000000000000000000081526004018080602001828103825260158152602001807f76616c75652073656e7420697320746f6f206c6f77000000000000000000000081525060200191505060405180910390fd5b3460046000858152602001908152602001600020600301600082825401925050819055506004600084815260200190815260200160002060050160003373ffffffffffffffffffffffffffffffffffffffff1673ffffffffffffffffffffffffffffffffffffffff168152602001908152602001600020349080600181540180825580915050906001820390600052602060002001600090919290919091505550600460008481526020019081526020016000206006013390806001815401808255809150509060018203906000526020600020016000909192909190916101000a81548173ffffffffffffffffffffffffffffffffffffffff021916908373ffffffffffffffffffffffffffffffffffffffff16021790555050611cdb34836122b8565b60046000858152602001908152602001600020600a0160003373ffffffffffffffffffffffffffffffffffffffff1673ffffffffffffffffffffffffffffffffffffffff16815260200190815260200160002060008282540192505081905550505050565b816004600082815260200190815260200160002060000160009054906101000a900473ffffffffffffffffffffffffffffffffffffffff1673ffffffffffffffffffffffffffffffffffffffff163373ffffffffffffffffffffffffffffffffffffffff16141515611e40576040517f08c379a00000000000000000000000000000000000000000000000000000000081526004018080602001828103825260298152602001807f5468652063616c6c65722073686f756c6420626520657175616c20746f20746881526020017f65206d616e61676572000000000000000000000000000000000000000000000081525060400191505060405180910390fd5b82600460008281526020019081526020016000206001015442101515611ef4576040517f08c379a00000000000000000000000000000000000000000000000000000000081526004018080602001828103825260328152602001807f43757272656e742074696d652073686f756c64206265206c657373207468616e81526020017f20746865207374617274696e672074696d65000000000000000000000000000081525060400191505060405180910390fd5b82600460008681526020019081526020016000206007019080519060200190611f1e9291906125bf565b5050505050565b600060046000848152602001908152602001600020600a0160008373ffffffffffffffffffffffffffffffffffffffff1673ffffffffffffffffffffffffffffffffffffffff16815260200190815260200160002054905080905092915050565b6000806000806000606080600080600460008b815260200190815260200160002060000160009054906101000a900473ffffffffffffffffffffffffffffffffffffffff169850600460008b8152602001908152602001600020600101549750600460008b8152602001908152602001600020600201549650600460008b8152602001908152602001600020600301549550600460008b8152602001908152602001600020600401549450600460008b81526020019081526020016000206006018054806020026020016040519081016040528092919081815260200182805480156120c757602002820191906000526020600020905b8160009054906101000a900473ffffffffffffffffffffffffffffffffffffffff1673ffffffffffffffffffffffffffffffffffffffff168152602001906001019080831161207d575b50505050509350600460008b81526020019081526020016000206007018054600181600116156101000203166002900480601f0160208091040260200160405190810160405280929190818152602001828054600181600116156101000203166002900480156121785780601f1061214d57610100808354040283529160200191612178565b820191906000526020600020905b81548152906001019060200180831161215b57829003601f168201915b50505050509250600460008b8152602001908152602001600020600801549150600460008b81526020019081526020016000206009015490508888888888888888889850985098509850985098509850985098509193959799909294969850565b6000809054906101000a900473ffffffffffffffffffffffffffffffffffffffff1673ffffffffffffffffffffffffffffffffffffffff163373ffffffffffffffffffffffffffffffffffffffff1614151561223457600080fd5b61223d816123bb565b50565b6000809054906101000a900473ffffffffffffffffffffffffffffffffffffffff1673ffffffffffffffffffffffffffffffffffffffff163373ffffffffffffffffffffffffffffffffffffffff1614151561229b57600080fd5b6001600360016101000a81548160ff021916908315150217905550565b600081838115156122c557fe5b04905092915050565b6000806004600084815260200190815260200160002060040154600460008581526020019081526020016000206003015411151561232457600460008481526020019081526020016000206008015490506123b2565b6004600084815260200190815260200160002060040154600460008581526020019081526020016000206003015410151561237757600460008481526020019081526020016000206009015490506123b1565b4260046000858152602001908152602001600020600201541015156123b057600460008481526020019081526020016000206009015490505b5b5b80915050919050565b600073ffffffffffffffffffffffffffffffffffffffff168173ffffffffffffffffffffffffffffffffffffffff16141515156123f757600080fd5b8073ffffffffffffffffffffffffffffffffffffffff166000809054906101000a900473ffffffffffffffffffffffffffffffffffffffff1673ffffffffffffffffffffffffffffffffffffffff167f8be0079c531659141344cd1fd0a4f28419497f9722a3daafe3b4186f6b6457e060405160405180910390a3806000806101000a81548173ffffffffffffffffffffffffffffffffffffffff021916908373ffffffffffffffffffffffffffffffffffffffff16021790555050565b82805482825590600052602060002090810192821561252e579160200282015b8281111561252d5782518260006101000a81548173ffffffffffffffffffffffffffffffffffffffff021916908373ffffffffffffffffffffffffffffffffffffffff160217905550916020019190600101906124d5565b5b50905061253b919061263f565b5090565b828054600181600116156101000203166002900490600052602060002090601f016020900481019282601f1061258057805160ff19168380011785556125ae565b828001600101855582156125ae579182015b828111156125ad578251825591602001919060010190612592565b5b5090506125bb9190612682565b5090565b828054600181600116156101000203166002900490600052602060002090601f016020900481019282601f1061260057805160ff191683800117855561262e565b8280016001018555821561262e579182015b8281111561262d578251825591602001919060010190612612565b5b50905061263b9190612682565b5090565b61267f91905b8082111561267b57600081816101000a81549073ffffffffffffffffffffffffffffffffffffffff021916905550600101612645565b5090565b90565b6126a491905b808211156126a0576000816000905550600101612688565b5090565b905600a165627a7a723058205c6f4a117c1d661bcfdbf66db6162e66a10b145f46bf1188388d9ec231347f390029",
  "source": "pragma solidity ^0.4.24;\n\n// EPM Library Usage\nimport \"openzeppelin-solidity/contracts/ownership/Ownable.sol\";\nimport \"./Proxy.sol\";\n\n\n/** @title A managment contract to store and manage all Campains for the platform.\n* This enables users to create new campagins and then other users can fund them.\n* Users can only fund campains that are currently running(have started and not\n* finished). If a user withdraws from a campaign, they can only do so if it does\n* not result in the campaign no longer getting funded.\n* @author Chris Maree - SoIdarity \n*/\ncontract CampaignManager is Ownable, Proxy{\n    /** @dev store the current state of the Camaign. \n    */    \n    \n    /** @dev define the standard properties of a Campaign \n    * @notice the doners are a mapping of addresses to uints. This enables each\n    * donar to donate more than one time and for a record to be kept. Moreover,\n    * if a doner removes their donation, a negative value can be stored here to\n    * indicate the withdrawl\n    * @notice the donersAddresses is used to store an array of all donars that\n    * contributed as maps are not itterable by populated keys\n    */\n    struct Campaign {\n        address manager;\n        uint startingTime;\n        uint endingTime;\n        uint balance;\n        uint goal;\n        mapping(address=>int[]) doners;\n        address[] donersAddresses;\n        string ipfsHash;\n        uint presalePrice;\n        uint postsalePrice;\n        mapping(address => uint) licenses;\n    }\n    \n    /** @dev store the total number of campaigns. Useful for retreving all of them **/\n    uint public campaignCount;\n    \n    /**\n    * @dev Stop the creation of new campagins\n    */\n    bool public emergencyStop_stopCreation = false;\n    \n    /**\n    * @dev stops the fundion of existing campagins\n    */\n    bool public emergencyStop_stopFunding = false;\n    \n    /** @dev store all campaigns as a mapping to their unique ID **/\n    mapping(uint => Campaign) public campaigns;\n    \n    /**\n    * @dev Verify the times spesified for the campaign are valid\n    * @param _startingTime of the campaign (unix time stamp)\n    * @param _endingTime of the campaign (unix time stamp)\n    */\n    modifier validNewCampaignTime(uint _startingTime,uint _endingTime){\n        require(_startingTime >= now, \"Firstly, Start time must be larger than the current time\");\n        require(_endingTime > _startingTime,\"Secondly, the end time should be more than the starting time\");\n        _;\n    }\n    \n    /**\n    * @dev Verify the current time is past the start time of the camaign\n    * @param _campaignID unique identifer of the campaign\n    */\n    modifier campaignHasStarted(uint _campaignID) {\n        require(now > campaigns[_campaignID].startingTime, \"Current time must be larger than starting time for project to start\");\n        _;\n    }\n    \n    /**\n    * @dev checks if the campaign is yet to start\n    * @param _campaignID unique identifer of the campaign\n    */\n    modifier campaignNotStarted(uint _campaignID){\n        require(now < campaigns[_campaignID].startingTime, \"Current time should be less than the starting time\");\n        _;\n    }\n\n    /**\n    * @dev Verify the current time is not past the end time of the camaign\n    * @param _campaignID unique identifer of the campaign\n    */\n    modifier campaignHasNotEnded(uint _campaignID) {\n        require(now < campaigns[_campaignID].endingTime, \"Current time must be less than the end time for the campaign to have not ended\");\n        _;\n    }\n\n\n    /**\n    * @dev Verify that the donation will not cause the campaign to drop below\n    * its goal. This prevents someone from making a campaign that would succeed,\n    * fail due to cancelling their contribution\n    * @notice value is required as the user has the choice to either cancle or\n    * reduce their donation.\n    * @param _campaignID unique identifer of the campaign\n    * @param _value is the amount that the donar wants to reduce their donation by\n    */\n    modifier campaignWillNotDropBelowGoal(uint _campaignID, uint _value) {\n        // We only need to do this check if the campaign has been funded thus far, with the balance being more than the goal\n        if(campaigns[_campaignID].balance>campaigns[_campaignID].goal){\n            require(\n                campaigns[_campaignID].balance-_value > campaigns[_campaignID].goal,\n                \"The value of the campaign balance after the reduction will be more than the goal\");\n        }\n        _;\n    }\n    \n    /**\n    * @dev Verify that the reduction from a donation will not cause the donation\n    * to drop below zero, and as such enabling the user to take out more than\n    * they deposited. Moreover, this check ensures that a user who did not donate\n    * cant withdraw as this assert will fail as their total donation balance will\n    * be zero.\n    * @notice the function needs to check the total donation for the user by\n    * summing over all previous donations\n    * @param _campaignID unique identifer of the campaign\n    * @param _value is the amount that the donar wants to reduce their donation by\n    */\n    modifier adequetDonationToReduce(uint _campaignID, uint _value){\n        int totalDonation = 0;\n        for (uint i = 0; i < campaigns[_campaignID].doners[msg.sender].length; i++){\n            totalDonation += campaigns[_campaignID].doners[msg.sender][i];\n        }\n        require(\n            totalDonation-int(_value) >= 0, \n            \"The sum of all donations for a particular user should be more than 0 to enable any kind of donation reduction\");\n        _;\n    }\n    \n    /**\n    * @dev checks that the caller of the function is the campaign's manager;\n    * This is the person that create the campaign.\n    * @param _campaignID unique identifer of the campaign\n    */\n    modifier onlyManager(uint _campaignID){\n        require(msg.sender == campaigns[_campaignID].manager,\"The caller should be equal to the manager\");\n        _;\n    }\n    /**\n    * @dev checks if a caller of the function is a Contributer to the campaign\n    * @notice If they have contributed, there will be some items within the \n    * doners array representing donations.\n    * @param _campaignID unique identifer of the campaign\n    */\n    modifier onlyContributer(uint _campaignID){\n        require(campaigns[_campaignID].doners[msg.sender].length > 0,\"The caller should have contributed at least once to the campaign\");\n        _;\n    }\n    \n    /**\n    * @dev Prevents the creation of new campaigns\n    */\n    modifier emergencyStop_Creation(){\n        require(emergencyStop_stopCreation == false, \"The emergency stop creation is active\");\n        _;\n    }\n    \n    /**\n    * @dev Prevents the funding of new campaigns\n    */\n    modifier emergencyStop_Funding(){\n        require(emergencyStop_stopFunding == false, \"The emergency stop funding is active\");\n        _;\n    }\n\n    /**\n    * @dev Checks whether the presale is over\n    */\n    modifier PresaleOver(uint _campaignID){\n        require(campaigns[_campaignID].balance >= campaigns[_campaignID].goal || now > campaigns[_campaignID].endingTime, \"Presale still in session\");\n        _;\n    }\n    \n     /** @dev Assign owner and reset campaign */\n    constructor() \n        public {\n        owner = msg.sender;\n        campaignCount = 0;\n    }\n    \n    function enableEmergencyStop_Creation()\n        public\n        onlyOwner\n    {\n        emergencyStop_stopCreation = true;\n    }\n    \n    function enableEmergencyStop_Funding()\n        public\n        onlyOwner\n    {\n        emergencyStop_stopFunding = true;\n    }\n    \n    /**\n    * @dev Returns the current price based on the progress of the campaign. If the goal \n    * and end time have not been met, it returns the presale price, otherwise it returns\n    * the postsale Price\n    * @param _campaignID unique identifer of the campaign\n    */\n    function currentPrice(uint _campaignID) internal view returns(uint){\n        uint price;\n        if (campaigns[_campaignID].balance <= campaigns[_campaignID].goal) {\n            price = campaigns[_campaignID].presalePrice;\n        } else if (campaigns[_campaignID].balance >= campaigns[_campaignID].goal) {\n            price = campaigns[_campaignID].postsalePrice;\n        } else if (campaigns[_campaignID].endingTime >= now) {\n            price = campaigns[_campaignID].postsalePrice;\n        }\n        return price;\n    }\n\n    /**\n    * @dev Computes the number of licenses given a value sent and the current price\n    * @notice uint division defaults to floor\n    * @param _value value sent to the contract\n    * @param _price current price of the item\n    */\n    function computeLicenses(uint _value, uint _price) internal pure returns(uint) {\n        return _value / _price;\n    }\n    \n    /**\n    * @dev Generate a new campaign struct and store it. Assign manager and values\n    * @param _startingTime unix time stamp of when the campaign will start\n    * @param _endingTime unix time stamp of when the campaign will end\n    * @param _goal value of the campaign (in ETH).\n    * @param _ipfsHash represents the campain information on IPFS in a hash\n    */\n    function createCampaign(\n        uint _startingTime, \n        uint _endingTime, \n        uint _goal, \n        string _ipfsHash,\n        uint _presalePrice,\n        uint _postsalePrice\n    ) \n        public\n        validNewCampaignTime(_startingTime,_endingTime)\n        emergencyStop_Creation\n        returns(uint)\n    {\n        address[] memory emptydonersAddresses;\n        campaigns[campaignCount] = Campaign({\n            manager: msg.sender,\n            startingTime: _startingTime,\n            endingTime: _endingTime,\n            balance: 0,\n            goal: _goal,\n            donersAddresses: emptydonersAddresses,\n            ipfsHash: _ipfsHash,\n            presalePrice: _presalePrice,\n            postsalePrice: _postsalePrice\n        });\n        campaignCount += 1;\n        return campaignCount;\n    }\n    \n    /**\n    * @dev Enable anyone to donate to a campaign. The campaign must have started,\n    * have not finished.\n    * @notice this changes the state of a campaign from NotStarted -> Running\n    * @param _campaignID unique identifer of the campaign\n    */\n    function fundCampaign(uint _campaignID) \n        public\n        payable\n        campaignHasStarted(_campaignID)\n        // validPrice(_campaignID)\n        emergencyStop_Funding\n    {\n        uint price = currentPrice(_campaignID);\n        require(msg.value >= price, \"value sent is too low\");\n        campaigns[_campaignID].balance += msg.value;\n        // Need to implicity typecast the msg.value for as donars can be\n        // negative when withdrawing\n        campaigns[_campaignID].doners[msg.sender].push(int(msg.value));\n        campaigns[_campaignID].donersAddresses.push(msg.sender);         \n        campaigns[_campaignID].licenses[msg.sender] += computeLicenses(msg.value, price);\n    }\n    \n    /**\n    * @dev Enable any donar to reduce their donation. The campaign must have,\n    * started have not finished and their reduction must not make a project that\n    * would succeed fail due to the reduction.\n    * @notice we dont need to check the state of the campain as you would only\n    * call this function if you had at some point donated and the check is done \n    * there (function fundCampaign).\n    * @param _campaignID unique identifer of the campaign\n    * @param _value the amount bywhich the campaign is reduced\n    */\n    function reduceDontation(uint _campaignID, uint _value)\n        public\n        campaignHasStarted(_campaignID)\n        campaignHasNotEnded(_campaignID)\n        campaignWillNotDropBelowGoal(_campaignID, _value)\n        adequetDonationToReduce(_campaignID, _value)\n    {\n        campaigns[_campaignID].balance -= _value;\n        // store the reduction in the doners respective array as a negative value\n        // preserving a history of reductions. The sum of this array is their\n        // respective donation\n        campaigns[_campaignID].doners[msg.sender].push(-int(_value));\n        uint licenses = computeLicenses(_value, campaigns[_campaignID].presalePrice);\n        if (licenses * campaigns[_campaignID].presalePrice <= _value){\n            if (licenses < fetchCampaignLicenses(_campaignID, msg.sender)) {\n                campaigns[_campaignID].licenses[msg.sender] -= (licenses + 1);\n            } else {\n                campaigns[_campaignID].licenses[msg.sender] -= licenses;\n            }\n        }\n        msg.sender.transfer(_value); //refund the user for the Ether they sent in\n    }\n    \n    /**\n    * @dev Enable the campaign manager to withdraw the funds donated after the \n    * period is finished. The state of the campaign.state defines if the ownerc\n    * @notice The campaign state changes from Running -> Funded\n    * @param _campaignID unique identifer of the campaign\n    */\n    function withdrawCampaignFunds(uint _campaignID)\n        public\n        onlyManager(_campaignID)\n        PresaleOver(_campaignID)\n    {\n        // Note that we dont have to change the balance of the campaign as we\n        // prevent double withdraws by checking the state of the campaign. \n        // Leaving the balance within the campaign enables an easy way to sender\n        // the total funds sent to the campaign.\n        msg.sender.transfer(campaigns[_campaignID].balance);\n    }\n\n    /**\n    * @dev Enables a fund manager to update the ipfs hash on an entry in the \n    * case they change it. \n    * @notice They can ONLY do this before a fund is sstarted.\n    * @param _campaignID unique identifer of the campaign\n    * @param _newHash defines the new IPFS hash for the campaign\n    */\n    function updateIpfsHash(uint _campaignID, string _newHash)\n        public\n        onlyManager(_campaignID)\n        campaignNotStarted(_campaignID)\n    {\n        campaigns[_campaignID].ipfsHash = _newHash;\n    }\n    \n    function fetchCampaign(uint _campaignID)\n        public\n        view\n        returns\n        (address manager,\n        uint startingTime,\n        uint endingTime,\n        uint balance,\n        uint goal,\n        address[] donersAddresses,\n        string ipfsHash,\n        uint presalePrice,\n        uint postsalePrice)\n    {\n        manager = campaigns[_campaignID].manager;\n        startingTime = campaigns[_campaignID].startingTime;\n        endingTime = campaigns[_campaignID].endingTime;\n        balance = campaigns[_campaignID].balance;\n        goal = campaigns[_campaignID].goal;\n        donersAddresses = campaigns[_campaignID].donersAddresses;\n        ipfsHash = campaigns[_campaignID].ipfsHash;\n        presalePrice = campaigns[_campaignID].presalePrice;\n        postsalePrice = campaigns[_campaignID].postsalePrice;\n        return (manager, startingTime, endingTime, balance, goal, donersAddresses, ipfsHash, presalePrice, postsalePrice);\n    }\n\n    function fetchCampaignLicenses(uint _campaignID, address _donor) public view returns(uint licenses) {\n        licenses = campaigns[_campaignID].licenses[_donor];\n        return licenses;\n    }\n}",
  "sourcePath": "/Users/chris/Projects/VaporPower/contracts/CampaignManager.sol",
  "compiler": {
    "name": "solc",
    "version": "0.4.24+commit.e67f0147.Emscripten.clang"
  },
  "schemaVersion": "2.0.1",
  "updatedAt": "2018-11-04T07:06:52.787Z"
}